:100000000C9463000C948B000C948B000C948B006C
:100010000C948B000C948B000C948B000C9430048B
:100020000C948B000C948B000C948B000C94D604D5
:100030000C948B000C948B000C948B000C948B0014
:100040000C948C040C948B000C948B000C948B00FF
:100050000C948B000C948B000C948B000C948B00F4
:100060000C948B000C948B000000000024002700EF
:100070002A0000000000250028002B0000000000DE
:1000800023002600290004040404040404040202DA
:100090000202020203030303030301020408102007
:1000A0004080010204081020010204081020000012
:1000B0000008000201000003040700000000000027
:1000C00000000200CB1011241FBECFEFD8E0DEBF2E
:1000D000CDBF22E0A2E0B1E001C01D92AF33B20774
:1000E000E1F711E0A0E0B1E0E6E5F2E202C0059040
:1000F0000D92A230B107D9F710E0C3E6D0E004C0FA
:100100002197FE010E940F11C236D107C9F70E9444
:1001100087050C9429110C940000AF92BF92CF92E6
:10012000DF92EF92FF920F931F93CF93DF937C01A7
:100130006B015A01FC018081918120913C02309138
:100140003D02C1E0D0E08217930708F062C09C0135
:10015000220F331FE0913A02F0913B02E20FF31FAE
:1001600000811181EC01C095D095C170DD272CE98B
:100170003FEF80FF02C024E630E02A0D3B1DC9019D
:1001800063E470E00E94FB100617170754F0C901E2
:1001900068E270E00E94FB106F5F7F4F601771078D
:1001A0006CF52A0D3B1DC90163E470E00E94FB1051
:1001B0000617170754F0C90168E270E00E94FB10AF
:1001C0006F5F7F4F6017710784F52A0D3B1DC901D2
:1001D00063E470E00E94FB100617170764F0C90182
:1001E00068E270E00E94FB106F5F7F4F23E030E019
:1001F000601771072CF4CFEFDFEF0BC021E030E088
:10020000F601808191810196821793078CF4918386
:100210008083CE01DF91CF911F910F91FF90EF90DE
:10022000DF90CF90BF90AF90089522E030E0E8CF0C
:1002300011821082F701808191810196E8CF83308D
:1002400081F028F4813099F08230A9F00895873048
:10025000A9F08830C9F08430B1F4809180008F7D9E
:1002600003C0809180008F7780938000089584B5CB
:100270008F7784BD089584B58F7DFBCF8091B000CA
:100280008F778093B00008958091B0008F7DF9CF73
:10029000CF93DF93282F30E0F901E255FF4F84918F
:1002A000F901E656FF4FD491F901EA57FF4FC49187
:1002B000CC23A1F081110E941F01EC2FF0E0EE0F82
:1002C000FF1FE458FF4FA591B491EC91ED2381E01D
:1002D00090E009F480E0DF91CF91089580E090E014
:1002E000FACF1F93CF93DF93282F30E0F901E25527
:1002F000FF4F8491F901E656FF4FD491F901EA5777
:10030000FF4FC491CC23A9F0162F81110E941F0129
:10031000EC2FF0E0EE0FFF1FEE58FF4FA591B491C8
:100320008FB7F894EC91111108C0D095DE23DC93BF
:100330008FBFDF91CF911F910895DE2BF8CF909161
:10034000000189130BC0E2ECF0E0E4919FEF909381
:100350000001E13049F028F0E23061F060E00C94F7
:10036000710110926E00FACF90916F009D7F909373
:100370006F00F4CF909170009D7F9093700091E09A
:100380009093B0009091B100987F94609093B100E9
:100390001092B300E3CFCF93DF9390E0FC01E656D9
:1003A000FF4F24918A579F4FFC0184918823D1F0FD
:1003B00090E0880F991FFC01E859FF4FA591B49177
:1003C000FC01EE58FF4FC591D49161110EC09FB74B
:1003D000F8948C91E22FE0958E238C932881E22370
:1003E000E8839FBFDF91CF9108958FB7F894EC9188
:1003F000E22BEC938FBFF6CF3FB7F89480910D01BD
:1004000090910E01A0910F01B091100126B5A89B0B
:1004100005C02F3F19F00196A11DB11D3FBFBA2F96
:10042000A92F982F8827BC01CD01620F711D811D56
:10043000911D42E0660F771F881F991F4A95D1F7DB
:1004400008958F929F92AF92BF92CF92DF92EF92D8
:10045000FF924B015C010E94FC016B017C010E9438
:10046000FC016C197D098E099F09683E7340810566
:100470009105A8F321E0821A9108A108B10888EE3D
:10048000C80E83E0D81EE11CF11C81149104A10464
:10049000B10429F7FF90EF90DF90CF90BF90AF901D
:1004A0009F908F90089561E081E10E947101109208
:1004B000F8011092F70161E080E10E947101109251
:1004C000F6011092F50161E085E00E947101109241
:1004D000F4011092F30161E081E00E947101109239
:1004E000F2011092F10161E08DE00E94710161E082
:1004F0008EE00E94710161E08FE00E94710161E075
:1005000080E00E94710161E083E10E94710161E07D
:1005100082E10E9471011092F0011092EF0110929D
:100520001C0210921B0210921D0210921E021092C9
:100530001F02109220021092FC011092FB0161E058
:1005400083E00E94710110922502109226021092FF
:100550002702109228021092210210922202109279
:100560002302109224020895CF93809100018230DB
:1005700061F08F3F99F16CE271E080E090E00E94C1
:10058000210282E0CF910C949F01E2ECF0E0C49153
:10059000C7FDF1CF61E082E00E94CB01CC2309F4DA
:1005A0008CC0C23009F0A0C08091B100887F826009
:1005B0008093B10089EF8093B3008FEF9FEFDC0150
:1005C0008093140190931501A0931601B093170125
:1005D00080917000826080937000CDCF82E0809324
:1005E0000001E2ECF0E0C491CF3F09F4C4CFC13088
:1005F00021F150F0C23009F43EC0C7FDBCCF61E02C
:1006000082E00E94CB01CDCF14BC15BC84B58260C2
:1006100084BD85B5816085BDE8E8F0E0E491F0E057
:10062000EE0FFF1FEE58FF4F85919491ECE9F0E03B
:10063000E491E0930301C0E0ADCF109280001092EE
:100640008100809181008860809381008091810089
:10065000816080938100E8E8F0E0E491F0E0EE0F43
:10066000FF1FEE58FF4F85919491ECE9F0E0E49183
:10067000E09302018FCF1092B0001092B1008091F0
:10068000B00082608093B0008091B100816080935F
:10069000B100E8E8F0E0E491F0E0EE0FFF1FEE5863
:1006A000FF4F859194919093120180931101ECE991
:1006B000F0E0E491E09313016DCF85B5887F82600F
:1006C00085BD89EF87BD8FEF9FEFDC018093080127
:1006D00090930901A0930A01B0930B0180916E00E1
:1006E000826080936E0047CFC130E9F48091810031
:1006F000887F8160809381008FEC97E090938900E0
:10070000809388008FEF9FEFDC018093040190932A
:100710000501A0930601B093070180916F008260EC
:1007200080936F0028CFC23021F0C11124CF8FEC0D
:10073000C9CF8FEC40CF4F925F926F927F928F9292
:100740009F92AF92BF92CF92DF92EF92FF920F9360
:100750001F93CF93DF93F82FE62FC0903A02D090EB
:100760003B024A0184E6880E911C83E4E82EF12CBA
:10077000C401B7010E94FB105B01C8E2D0E0C401D4
:10078000BE010E94FB102B018FEF481A580A245615
:100790003109C901B7010E94FB104B01C901BE011B
:1007A0000E94FB103B018FEF681A780A045611096A
:1007B000C801B7010E94FB109B01C801BE010E9445
:1007C000FB10AB014F5F5F4FFF0FFE0F60E070E06B
:1007D000CB01AE2FB0E0AA0FBB1FAC0DBD1D0D901D
:1007E000BC91A02DAA15BB057CF14A165B0664F1ED
:1007F000A1E0AE0FB0E0AA0FBB1FAC0DBD1D0D9068
:10080000BC91A02DA815B905E4F06A167B0604F189
:10081000660F771F881F991F6160EE5FFE13D9CFA7
:10082000DF91CF911F910F91FF90EF90DF90CF90CC
:10083000BF90AF909F908F907F906F905F904F9000
:100840000895A217B30724F460E070E0CB01E8CF6D
:100850004A175B07CCF3660F771F881F991FDDCF00
:100860001F920F920FB60F9211242F933F934F9325
:100870005F936F937F938F939F93AF93BF93EF9308
:10088000FF938091140190911501A0911601B091F0
:100890001701892B8A2B8B2BD1F190911301E091B9
:1008A0001101F091120180818927808380911401C8
:1008B00090911501A0911601B09117011816190613
:1008C0001A061B069CF48091140190911501A091C9
:1008D0001601B09117010197A109B1098093140184
:1008E00090931501A0931601B0931701FF91EF911A
:1008F000BF91AF919F918F917F916F915F914F9138
:100900003F912F910F900FBE0F901F9018958091DF
:1009100000010E949F01EACF1F920F920FB60F9223
:1009200011242F933F938F939F93AF93BF93809105
:10093000180190911901A0911A01B0911B013091F9
:100940000C0123E0230F2D3758F50196A11DB11D91
:1009500020930C018093180190931901A0931A0120
:10096000B0931B0180910D0190910E01A0910F0198
:10097000B09110010196A11DB11D80930D019093BE
:100980000E01A0930F01B0931001BF91AF919F9101
:100990008F913F912F910F900FBE0F901F90189540
:1009A00026E8230F0296A11DB11DD2CF1F920F92F0
:1009B0000FB60F9211242F933F934F935F936F9332
:1009C0007F938F939F93AF93BF93EF93FF93809108
:1009D0001D010E944801982F40912201509123014E
:1009E0004F5F5F4F509323014093220120912001DC
:1009F000309121012536310530F081E08093EE0100
:100A000083E080931C0180911C01811138C09111F9
:100A100007C04436510508F51092230110922201B7
:100A200080911F01882341F080911E01911167C0C0
:100A300061E0811167C02D9AFF91EF91BF91AF9155
:100A40009F918F917F916F915F914F913F912F91E6
:100A50000F900FBE0F901F9018951092EE0121E09D
:100A600030E03093210120932001509325014093E1
:100A70002401109223011092220181E019C080917B
:100A80001C018130C1F4913059F6B9016F5F7F4F7D
:100A90007093210160932001220F331FF901EC5D57
:100AA000FE4F51834083109223011092220182E075
:100AB00080931C01B5CF80911C018230B9F4911153
:100AC0000FC0B9016F5F7F4F7093210160932001C8
:100AD000220F331FF901EC5DFE4F51834083C9CFD4
:100AE0004536510508F49CCF83E0E2CF80911C018C
:100AF000833009F095CF992309F48ECF91CF8823C5
:100B000021F060E00E94710197CF2D9895CFCF938F
:100B1000DF93CDB7DEB72A970FB6F894DEBF0FBECE
:100B2000CDBF789484B5826084BD84B5816084BD76
:100B300085B5826085BD85B5816085BD80916E007B
:100B4000816080936E0010928100809181008260AC
:100B500080938100809181008160809381008091E9
:100B600080008160809380008091B10084608093D8
:100B7000B1008091B00081608093B00080917A00D4
:100B8000846080937A0080917A00826080937A00FA
:100B900080917A00816080937A0080917A008068E9
:100BA00080937A001092C100F8941092800089E03E
:100BB0008093810080E293E0909389008093880085
:100BC000109285001092840082E080936F007894E8
:100BD00010921C0160E080911D010E94CB0160E039
:100BE0008CE00E94CB0161E081E10E94CB0161E0D9
:100BF00081E10E94710160E08BE00E94CB0161E025
:100C000080E10E94CB0161E080E10E94710160E01F
:100C100086E00E94CB0161E085E00E94CB0161E0AB
:100C200085E00E94710160E089E00E94CB0161E0F3
:100C300083E00E94CB0161E083E00E94710160E0EB
:100C400088E00E94CB0161E081E00E94CB0161E07D
:100C500081E00E94710160E08AE00E94CB0161E0C6
:100C60008DE00E94CB0160E08DE00E94710161E0A7
:100C70008EE00E94CB0161E08EE00E94710161E094
:100C80008FE00E94CB0161E08FE00E94710160E083
:100C900087E00E94CB0161E080E00E94CB0161E02F
:100CA00080E00E94710161E083E10E94CB0161E07C
:100CB00083E10E94710161E082E10E94CB0161E069
:100CC00082E10E94710160E085E10E94CB0161E058
:100CD00082E00E94CB01CC24C394D12C2FB7F8948E
:100CE0008091180190911901A0911A01B0911B01F6
:100CF0002FBF4091290250912A0260912B027091DE
:100D00002C02841B950BA60BB70B81369A4EA105BE
:100D1000B10530F18091250290912602A091270221
:100D2000B09128020196A11DB11D809325029093D8
:100D30002602A0932702B09328022FB7F89480913F
:100D4000180190911901A0911A01B0911B012FBFB8
:100D50008093290290932A02A0932B02B0932C0235
:100D60008091250290912602A0912702B09128023D
:100D7000CD97A105B105DCF080912102909122026E
:100D8000A0912302B09124020196A11DB11D809370
:100D9000210290932202A0932302B0932402109286
:100DA00025021092260210922702109228024091EA
:100DB0001D0250911E0260911F02709120028091CD
:100DC000250290912602A0912702B091280248178F
:100DD00059076A077B0741F480911B0290911C021E
:100DE000019711F40E94530280911C01833009F095
:100DF000AFC684E291E090933B0280933A02A090C8
:100E00002001B0902101B0923D02A0923C0281E00D
:100E10009091EE01911101C080E080933E0210920A
:100E2000300210922F021092390220902601309049
:100E30002701C101875891098E35910508F0D0C06E
:100E400094E0A916B10409F0A6C080912801909100
:100E500029018097479708F0C3C080912A0190919B
:100E60002B010997099708F0BBC010923602109227
:100E700035028FEF9FEFDC018093310290933202B5
:100E8000A0933302B093340281E0809339028BE067
:100E900090E090932E0280932D02FF24F39482E140
:100EA000EDE2F2E0A9E0B2E001900D928A95E1F75F
:100EB000F110BBC7B0E2AB16B10409F493C0E0E691
:100EC000AE16B10409F099C023E030E03E832D83D3
:100ED000C1010397059708F090C080912801909177
:100EE0002901893191050CF482C08C970CF085C0E2
:100EF000EE24E394412C512C3201912C812C0BE1F6
:100F000013E02DE037E04AEF50E06E2D85E00E94BF
:100F10009B036F83788789879A872DE037E04AEFB4
:100F200050E065E06E0D88E00E949B03411451047F
:100F30006104710431F0641575058605970509F0A3
:100F40005CC02B013C014094AFEF8A1A9A0AB6E0CC
:100F5000EB0EED81FE81E815F90589F62FE030E012
:100F6000309336022093350260933102709332023F
:100F700080933302909334022F813885309330026E
:100F800020932F0281E190E090932E0280932D0216
:100F9000FF24F39432C094E4A916B10408F18091BF
:100FA000280190912901815491098F97C8F400E399
:100FB00012E02AE936E040E352E063E080E20E947A
:100FC0009B03A0E2B0E0B0933602A0933502609399
:100FD000310270933202809333029093340257CFE0
:100FE000F12C5DCF81E090E09E838D8371CF8A30BC
:100FF00091051CF043970CF47BCF82E1EDE2F2E027
:10100000A9E0B2E001900D928A95E1F7F1100DC7C9
:1010100030E2A316B10408F45CC0809162019091A3
:1010200063010397059708F054C080916001909187
:1010300061010897099708F04CC020912401309174
:101040002501A2E3B0E00E94EC106135734C8105EC
:1010500091050CF481C0ECE1F1E090E080E024AD7A
:1010600035AD283131050CF46DC02B3231058CF5CE
:10107000880F991F81603497B0E0E83EFB0779F74D
:101080002DE030E030933602209335029C0120722F
:101090003327215031093093300220932F0235E05D
:1010A000969587953A95E1F7B0E0A0E080933102FC
:1010B00090933202A0933302B093340282E190E025
:1010C00090932E0280932D0281E080930101FF24F2
:1010D000F39482E1EDE2F2E0A9E0B2E001900D923A
:1010E0008A95E1F7F110A1C69AE1A916B10408F4B6
:1010F00089C0209124013091250142E3429FC00123
:10110000439F900D1124843F914008F045C01092F8
:101110003602109235028FEF9FEFDC01809331028F
:1011200090933202A0933302B093340281E0809313
:101130003902AFEFBFEFB0932E02A0932D02FF2430
:10114000F39460C02830310524F2213131050CF0D0
:10115000C0CF880F991F8FCF80910101811119C0D5
:1011600010923602109235028FEF9FEFDC018093D0
:10117000310290933202A0933302B093340281E0A3
:101180008093390281E190E090932E0280932D02AA
:101190009ECF109201019DCFC10185974B9790F58D
:1011A000ECE1F1E082E090E040E050E0BA019C0127
:1011B0002F5F3F4F2A153B05C0F424853585275006
:1011C00031092730310588F42685378523313105EB
:1011D0000CF4D8C722323105ACF4440F551F661FFA
:1011E000771F416002963496E2CF019796958795D6
:1011F00090933602809335020C97E0F510923602F8
:101200001092350282E1EDE2F2E0A9E0B2E0019055
:101210000D928A95E1F7F11008C6BAE1AB16B10458
:1012200008F480C0209124013091250142E3429FBF
:10123000C001439F900D11248032934050F51092CD
:101240003602109235028FEF9FEFDC01809331025E
:1012500090933202A0933302B093340281E08093E2
:10126000390280E190E090932E0280932D02FF24BA
:10127000F39458C04093310250933202609333028A
:101280007093340283E190E090932E0280932D02BC
:1012900056CFC101C597879708F044C080912801B7
:1012A00090912901C5978797E8F5ECE1F1E083E09B
:1012B00090E040E050E0BA019C012F5F3F4F2A15BB
:1012C0003B0510F5268537852C5031092B3031052B
:1012D000D8F420893189253231055CF0203431057C
:1012E0000CF5440F551F661F771F41600296349618
:1012F000E3CF2B303105B4F0263131059CF4440F97
:10130000551F661F771FF2CF01979695879590938B
:101310003602809335020C9708F0C0C01092360256
:101320001092350282E1EDE2F2E0A9E0B2E0019034
:101330000D928A95E1F7F11078C592E2A916B104F1
:1013400008F443C0A6E02A1A3108B7E02B1631048E
:10135000E0F50CE111E043E050E080E090E0DC01DA
:101360009A01215031094A155B05F8F4B801F801DA
:10137000248535852E3131050CF49BC0253331058C
:1013800024F5880F991FAA1FBB1F81609A012E5F49
:101390003F4F0C5F1F4FFB016685778563507109D6
:1013A0006530710508F483C09A01215031093695E2
:1013B000279530933602209335022031310508F00D
:1013C00085C0109236021092350282E1EDE2F2E021
:1013D000A9E0B2E001900D928A95E1F7F11025C5E0
:1013E0001C821B82DA82C982FDE0AF16B10408F4C8
:1013F0009BC049E753E0BE016D5F7F4FCE01019670
:101400000E948D00892B09F08FC049E753E0BE018F
:101410006D5F7F4FCE0101960E948D00019709F00C
:1014200083C049E753E0BE016D5F7F4FCE01019657
:101430000E948D008C01892B09F076C0412C512C23
:10144000320120913C0230913D0289819A818217BC
:10145000930708F055C049E753E0BE016D5F7F4F29
:10146000CE0101960E948D005C0149E753E0BE0168
:101470006D5F7F4FCE0101960E948D0021E0A21684
:10148000B104A9F5892B09F04FC0440C551C661C0A
:10149000771C689440F80F5F1F4FD3CF4093310201
:1014A000509332026093330270933402DACEA90172
:1014B00057CF2C3031050CF488CF273131050CF093
:1014C00084CF880F991FAA1FBB1F60CF8093310262
:1014D00090933202A0933302B093340289E090E0FB
:1014E00090932E0280932D02FF24F3946ECFAB28AD
:1014F000D9F40197C9F4440C551C661C771CCBCF5A
:10150000109336020093350240923102509232021B
:1015100060923302709234028DE090E090932E023C
:1015200080932D02FF24F39482E1EDE2F2E0A9E042
:10153000B2E001900D928A95E1F7F11076C41C8219
:101540001B82DA82C98280913C0290913D02892BF4
:1015500009F480C0E0913A02F0913B0282819381CC
:1015600089974E9708F076C082E090E09A8389834D
:10157000848195810B970A9708F06CC083E090E016
:101580009A8389834CEB51E0BE016D5F7F4FCE01A2
:1015900001960E948D005C01892B09F05BC04CEB29
:1015A00051E0BE016D5F7F4FCE0101960E948D001C
:1015B000019709F04FC0212C312C210120913C02D0
:1015C00030913D0289819A818217930708F0B0C358
:1015D0004CEB51E0BE016D5F7F4FCE0101960E9442
:1015E0008D003C0193E0A916B10441F14CEB51E0B0
:1015F000BE016D5F7F4FCE0101960E948D004C01B0
:10160000A3E0AA16B10461F44CEB51E0BE016D5F9A
:101610007F4FCE0101960E948D0088169906D1F465
:101620006114710409F476C36A94672899F48928CF
:1016300089F4220C331C441C551C76C34CEB51E03E
:10164000BE016D5F7F4FCE0101960E948D0068162E
:10165000790661F282E1EDE2F2E0A9E0B2E0019008
:101660000D928A95E1F7F110E0C3A0903A02B09094
:101670003B02D50112968D919C911397C597879740
:1016800098F514968D919C914B97459768F500E9D4
:1016900011E02CED34E046EF51E063E080E10E9480
:1016A0009B032B012CED34E046EF51E063E180E237
:1016B0000E949B0360933102709332028093330245
:1016C000909334025092300240922F028CE090E0CE
:1016D00090932E0280932D0280E390E09093360247
:1016E00080933502FF24F39482E1EDE2F2E0A9E079
:1016F000B2E001900D928A95E1F7F11096C36090E7
:10170000200170902101B9E36B167104B0F1F5016D
:10171000828193818E5791098835910570F5848176
:101720009581CD978B9748F506E212E020E436E0EC
:1017300048E552E063E08CE10E949B03D5011696D8
:101740002D913C912A50310929303105B0F42CE11A
:1017500030E030933602209335026093310270936B
:101760003202809333029093340287E090E09093AA
:101770002E0280932D02FF24F39482E1EDE2F2E049
:10178000A9E0B2E001900D928A95E1F7F1104DC306
:1017900080903C0290903D02F50182819381F2E2BB
:1017A0008F16910409F0D9C29C012A5031092930C1
:1017B000310508F0D2C2F501EE5BFF4F2081318187
:1017C0002A5031092930310508F0C7C2109236027B
:1017D000109235028FEF9FEFDC01809331029093DE
:1017E0003202A0933302B093340281E08093390235
:1017F00085E090E090932E0280932D02FF24F394D5
:1018000082E1EDE2F2E0A9E0B2E001900D928A956A
:10181000E1F7F1100AC3D50112968D919C91845481
:101820009109C19750F5B4E06B16710409F0CAC272
:10183000F5018481958180974797F8F48681978197
:1018400009970997D0F410923602109235028FEF63
:101850009FEFDC018093310290933202A093330218
:10186000B093340281E0809339028FE090E090934E
:101870002E0280932D02FF24F39482E1EDE2F2E048
:10188000A9E0B2E001900D928A95E1F7F110CDC286
:10189000F6E48F16910408F444C0D50112968D9198
:1018A0009C9113970C970B97E0F514968D919C9152
:1018B000159709970997A8F516968D919C911797FA
:1018C0008C974F9770F518968D919C9189974D97AD
:1018D00040F50EEE12E026E638E04EEE52E065E00E
:1018E00080E20E949B03F501228533852C5031094B
:1018F0002B303105B0F420E230E0309336022093F3
:1019000035026093310270933202809333029093D8
:10191000340284E190E090932E0280932D02FF2404
:10192000F39482E1EDE2F2E0A9E0B2E001900D92E1
:101930008A95E1F7F11079C238E58316910408F42D
:1019400054C0D50112968D919C911397845891099A
:101950008C35910508F049C014968D919C91815465
:1019600091098F9708F041C0F5014DE150E090E0FA
:1019700080E0D40114974A175B0708F054C222ADE7
:1019800033AD285031092930310578F59A012F5FA0
:101990003F4F64AD75AD6730710554F06E30710521
:1019A0000CF437C2675171096331710508F438C20C
:1019B0002150310936952795309336022093350210
:1019C0002A32310590F0092E000CAA0BBB0B809334
:1019D000310290933202A0933302B0933402D0923A
:1019E0002E02C0922D02FF24F39482E1EDE2F2E098
:1019F000A9E0B2E001900D928A95E1F7F11015C2CD
:101A0000B0E26B16710459F5F50182819381059757
:101A1000079728F5848195810997099700F50EEEBF
:101A200012E028E037E04CE251E063E08EE00E94F3
:101A30009B032EE030E03093360220933502609312
:101A4000310270933202809333029093340283E028
:101A500090E090932E0280932D02FF24F39482E174
:101A6000EDE2F2E0A9E0B2E001900D928A95E1F793
:101A7000F110DBC136E08316910408F45CC0F50177
:101A8000329625EC3DE94CE151E803E0E02EF12CE3
:101A90008AE0B82E8481958161917191B89E300160
:101AA000B99E700C1124DB0113E0AA0FBB1F1A951D
:101AB000E1F710E000E06A167B0688F0B69ED001E0
:101AC000B79EB00D112463E0880F991F6A95E1F766
:101AD00002E010E0A817B90710F001E010E063E998
:101AE00071E080E091E00E94D110012E000C220BE9
:101AF000330BA901980126273727482759278FEF4D
:101B0000E81AF80AE814F90429F620933102309310
:101B100032024093330250933402A0E2B0E0B0931B
:101B20003602A0933502EFEFFFEFF0932E02E09321
:101B30002D02FF24F39482E1EDE2F2E0A9E0B2E0AD
:101B400001900D928A95E1F7F1106FC110921C017E
:101B500089E00E944801019731F08091FF01909146
:101B600000020297E9F48091FB019091FC01892B1E
:101B700009F0D4C1D092FC01C092FB0160E083E087
:101B80000E94710160E08DE00E947101D092FA0123
:101B9000C092F901109200021092FF010E94B4025B
:101BA0008091FB019091FC01019709F04AC28CE001
:101BB0000E944801019731F0809105029091060240
:101BC0000297A9F48091F7019091F801892B09F00F
:101BD000AEC1D092F801C092F70160E081E10E94AD
:101BE00071010E94B40210920602109205028BE06D
:101BF0000E944801019731F0809103029091040204
:101C00000297A9F48091F5019091F601892B09F0D2
:101C100094C1D092F601C092F50160E080E10E948B
:101C200071010E94B402109204021092030286E035
:101C30000E944801019731F08091010290910202C7
:101C40000297A9F48091F3019091F401892B09F096
:101C50007AC1D092F401C092F30160E085E00E9465
:101C600071010E94B402109202021092010288E0F7
:101C70000E9448018130910589F42091F101309151
:101C8000F201232B09F065C19093F2018093F101D9
:101C900060E081E00E9471010E94B4028AE00E942B
:101CA0004801019739F0809107029091080202974C
:101CB00009F067C18091F9019091FA01892B61F4D3
:101CC00061E08FE00E94710160E08DE00E9471018F
:101CD000D092FA01C092F9018091F9019091FA0134
:101CE0008230910509F46CC18330910509F437C144
:101CF000019709F042C161E08DE00E94710160E04E
:101D00008EE00E94710182E090E09093FA0180934E
:101D1000F90131C18A94892809F09CCC220C331C2A
:101D2000441C551C689420F8FFEFAF1ABF0A46CC3C
:101D3000B0923602A09235022092310230923202E5
:101D400040923302509234022EE030E030932E0263
:101D500020932D02FF24F3947DCC8E579109883572
:101D6000910508F04DCD91E28916910408F448CD13
:101D7000D50114968D919C91CD978B9708F040CD0D
:101D800006E212E020E436E048E552E063E080E15C
:101D90000E949B03F501268137812A5031092930A1
:101DA000310508F02DCD20E130E03093360220934C
:101DB0003502609331027093320280933302909324
:101DC000340216CD94E46916710408F456CDD50199
:101DD00014968D919C91815491098F9708F04DCD67
:101DE00000E312E020E436E040E352E063E080E20A
:101DF0000E949B03E0E2F0E0F0933602E0933502AC
:101E000060933102709332028093330290933402D4
:101E10002CCD880F991F81604E5F5F4F3496ABCDFC
:101E2000880F991FF9CF9A01C3CD80910D0290912F
:101E30000E02A0910F02B09110028B3AF0EE9F07B4
:101E4000F7E8AF07FEE4BF0709F44AC0B0F48B3DE2
:101E500036E2930732E3A30734E1B307B9F18638DA
:101E60009C43AA41B74341F110921C016AE070E023
:101E700080E090E00E9421026BCE8133F9EB9F0756
:101E8000FAE2AF07F3EABF07A9F1863B2BE492071A
:101E900028E9A20720EEB207B9F18E3A9044A24A8F
:101EA000BE4411F780910102909102020196909335
:101EB000020280930102D8CF80910702909108021C
:101EC00001969093080280930702CECF809105027D
:101ED0009091060201969093060280930502C4CF6A
:101EE00080910302909104020196909304028093E2
:101EF0000302BACF8091FF01909100020196909366
:101F000000028093FF01B0CF8091FD019091FE010E
:101F100001969093FE018093FD01A6CF1092FC01E3
:101F20001092FB0161E083E00E94710133CE1092B8
:101F3000F8011092F70161E051CE1092F601109273
:101F4000F50161E06BCE1092F4011092F30161E0B3
:101F500085CE1092F2011092F10161E09ACE61E01B
:101F60008FE00E94710160E08DE00E947101D092CB
:101F7000FA01C092F9010E94B40210920802109274
:101F8000070287E00E944801019739F08091FD0126
:101F90009091FE01029709F054C0E091EF01F09199
:101FA000F001E830F10568F5E852F04F0C940F119C
:101FB000EB0F33104A106110741087109A10AD1097
:101FC00061E08EE00E94710160E08FE00E9471018B
:101FD00083E090E09ACE61E082E10E94710161E0CD
:101FE00083E10E94710160E080E00E947101D09263
:101FF0001C02C0921B02D092F001C092EF010E941D
:10200000B4028091EF019091F001092E000CAA0B0F
:10201000BB0B4091250250912602609127027091DE
:102020002802840F951FA61FB71F80931D0290934F
:102030001E02A0931F02B09320021092FE01109284
:10204000FD018091FB019091FC01892B11F40E940C
:10205000530280E090E0892B11F40C946E060E94EC
:1020600000000C946B0661E082E10E94710160E067
:1020700083E10E94710161E080E00E947101D092D1
:102080001C02C0921B02A2E0B0E0B093F001A0934A
:10209000EF01B5CF61E082E10E94710160E083E170
:1020A0000E94710160E080E00E947101D0921C02E8
:1020B000C0921B0283E090E09093F0018093EF01C7
:1020C0009ECF60E082E10E94710161E083E10E94A5
:1020D000710161E080E00E947101D0921C02C09207
:1020E0001B0284E090E0E8CF60E082E10E94710191
:1020F00061E083E10E94710160E080E00E94710173
:10210000D0921C02C0921B0285E090E0D5CF60E027
:1021100082E10E94710160E083E10E94710161E04F
:1021200080E00E947101D0921C02C0921B0286E0E6
:1021300090E0C2CF60E082E10E94710160E083E143
:102140000E94710160E080E00E947101D0921C0247
:10215000C0921B0287E090E0AFCF61E082E10E9475
:10216000710161E083E10E94710161E080E00E9401
:10217000710110921C0210921B021092F001109239
:10218000EF013DCF2A3031050CF43CC8440F551FF8
:10219000661F771F27C8ECE1F1E084E0818313829A
:1021A0000895DB018F939F930E94E110BF91AF913F
:1021B000A29F800D911DA39F900DB29F900D1124A1
:1021C00008950E94EC10A59F900DB49F900DA49FC0
:1021D000800D911D11240895A29FB001B39FC001ED
:1021E000A39F700D811D1124911DB29F700D811D43
:1021F0001124911D089597FB072E16F4009407D023
:1022000077FD09D00E94151107FC05D03EF490958A
:1022100081959F4F0895709561957F4F0895EE0FBA
:10222000FF1F0590F491E02D0994AA1BBB1B51E1FF
:1022300007C0AA1FBB1FA617B70710F0A61BB70B36
:10224000881F991F5A95A9F780959095BC01CD01DB
:062250000895F894FFCF91
:02225600FF0186
:00000001FF
