:100000000C9462000C948A000C948A000C948A0070
:100010000C948A000C948A000C948A000C948A0038
:100020000C9484050C948A000C948A000C948A0029
:100030000C948A000C948A000C948A000C948A0018
:100040000C943A050C948A000C9408050C94E20474
:100050000C948A000C948A000C948A000C948A00F8
:100060000C948A000C948A000000000024002700F1
:100070002A0000000000250028002B0000000000DE
:1000800023002600290004040404040404040202DA
:100090000202020203030303030301020408102007
:1000A0004080010204081020010204081020000012
:1000B0000008000201000003040700000000000027
:1000C00000004A0611241FBECFEFD8E0DEBFCDBF2F
:1000D00022E0A0E2B1E001C01D92A83DB207E1F725
:1000E00011E0A0E0B1E0E6EDFCE102C005900D9268
:1000F000A032B107D9F710E0C2E6D0E004C02197E2
:10010000FE010E94630EC136D107C9F70E947C062A
:100110000C94690E0C940000AF92BF92CF92DF92C4
:10012000EF92FF920F931F93CF93DF937C016B01AC
:100130005A01FC01808191812091C2023091C30259
:10014000C1E0D0E08217930708F05DC09C01220F48
:10015000331FE091C002F091C102E20FF31F008152
:100160001181EC01C095D095C170DD272CEE3FEFD9
:1001700080FF02C024E130E02A0D3B1DC90163E489
:1001800070E00E94360E0617170750F0C90168E2AA
:1001900070E00E94360E6F5F7F4F6017710760F549
:1001A0002A0D3B1DC90163E470E00E94360E06175C
:1001B000170750F0C90168E270E00E94360E6F5FC9
:1001C0007F4F6017710758F52A0D3B1DC90163E485
:1001D00070E00E94360E0617170758F0C90168E252
:1001E00070E00E94360E6F5F7F4F93E060177107DB
:1001F00020F4CFEFDFEF07C091E0F60180818F5F41
:10020000891778F48083CE01DF91CF911F910F91F0
:10021000FF90EF90DF90CF90BF90AF90089592E065
:10022000ECCF1082F70180819181019691838083C8
:10023000EACFFC01538D448D252F30E0842F90E0D0
:10024000821B930B541710F0CF96089501970895D1
:10025000FC01918D828D981761F0A28DAE0FBF2F9A
:10026000B11D5D968C91928D9F5F9F73928F90E0F0
:1002700008958FEF9FEF0895FC01918D828D98175F
:1002800031F0828DE80FF11D858D90E008958FEF9C
:100290009FEF0895FC01918D228D892F90E0805C65
:1002A0009F4F821B91098F7399270895FC01A48D9C
:1002B000A80FB92FB11DA35ABF4F2C91848D90E088
:1002C00001968F739927848FA689B7892C93A0896B
:1002D000B1898C91837080648C93938D848D9813F5
:1002E00006C00288F389E02D80818F7D8083089588
:1002F000EF92FF920F931F93CF93DF93EC0181E076
:10030000888F9B8D8C8D98131AC0E889F98980811C
:1003100085FF15C09FB7F894EE89FF896083E8894F
:10032000F98980818370806480839FBF81E090E041
:10033000DF91CF911F910F91FF90EF900895F62ECE
:100340000B8D10E00F5F1F4F0F731127E02E8C8D68
:100350008E110CC00FB607FCFACFE889F9898081AD
:1003600085FFF5CFCE010E945601F1CFEB8DEC0F4A
:10037000FD2FF11DE35AFF4FF0829FB7F8940B8FCA
:10038000EA89FB8980818062CFCFCF93DF93EC0134
:10039000888D8823B9F0AA89BB89E889F9898C916D
:1003A00085FD03C0808186FD0DC00FB607FCF7CF29
:1003B0008C9185FFF2CF808185FFEDCFCE010E9429
:1003C0005601E9CFDF91CF91089586E491E00E9434
:1003D0004A0121E0892B09F420E0822F089580E072
:1003E00090E0892B29F00E94E50181110C94000016
:1003F0000895FC019B0124513109C90163E470E0B7
:100400000E94360EE617F70758F0C90168E270E05F
:100410000E94360E6F5F7F4F81E06E177F0708F4F2
:1004200080E008952F923F924F925F926F927F9259
:100430008F929F92AF92BF92CF92DF92EF92FF92F4
:100440000F931F93CF93DF9300D000D000D0CDB790
:10045000DEB7382E3C832B8338012E2C70E0660FDC
:10046000771F2091C0023091C102260F371F3E83B3
:100470002D839A012C5E3F4FC90163E470E00E9416
:10048000360E8B01C90168E270E00E94360ECB0186
:1004900001969A838983EE2009F459C0C12CD12C8E
:1004A0007601912CED81FE818081918180179107E9
:1004B00008F480C029813A812817390708F47AC0E6
:1004C000A280B3806B817C81C5010E94F9018823E1
:1004D00091F1CC0CDD1CEE1CFF1C6894C0F88D81E2
:1004E0009E8104969E838D8393943910DBCFC092B6
:1004F000B802D092B902E092BA02F092BB02222472
:100500002394822D26960FB6F894DEBF0FBECDBF82
:10051000DF91CF911F910F91FF90EF90DF90CF90DF
:10052000BF90AF909F908F907F906F905F904F9013
:100530003F902F900895B301C5010E94F901282E24
:100540008823F9F2CC0CDD1CEE1CFF1CC8CF812CDB
:10055000912C54018394C12CD12C7601ED81FE8124
:10056000808191818017910760F229813A81281753
:10057000390738F2428053806B817C81C2010E942E
:10058000F901882389F0C828D928EA28FB288D8119
:100590009E8104969E838D83880C991CAA1CBB1C8B
:1005A0003A943110DBCFA3CFB301C2010E94F9010D
:1005B0008111EDCF212CA5CF8F929F92AF92BF9248
:1005C000EF920F931F93CF93DF938091C20290918C
:1005D000C3028436910559F080E0DF91CF911F91DD
:1005E0000F91EF90BF90AF909F908F900895E09102
:1005F000C002F091C10282819381C397859760F711
:10060000848195814A97439738F7E12C00EB11E0FC
:1006100020E135E040EB51E063E080E10E9412020E
:100620008823D1F28090B8029090B902A090BA02CB
:10063000B090BB02C9E0D0E082E0881680E2980664
:10064000A104B10431F1CDE0D0E09AEA89169AE52F
:100650009906A104B104E9F0CCE0D0E084E5881665
:1006600082E39806A104B104A1F0CBE0D0E093E0CE
:10067000891691E09906A104B10459F0CAE0D0E0CE
:1006800083E288168BEC9806A104B10411F4CEE045
:10069000D0E0E12C00EB11E020E135E040EB51E04F
:1006A00063E280E20E941202882309F495CF409110
:1006B000B8025091B9026091BA027091BB029A01DE
:1006C00094E0369527959A95E1F73093C8022093E8
:1006D000C702262F30E03093CA022093C902342F7C
:1006E00036273527292D2825922F92959F709227FE
:1006F0009F70242F2F70921719F094E09093CE02E0
:10070000CA30D10579F49091CE0290619093CE02D7
:10071000E091CB02F091CC028E2A9F2A9092CC02DB
:100720008092CB02371719F094E09093CE02E091BB
:10073000C002F091C1022081318128323A4028F470
:100740009091CE0291609093CE02D093C602C09356
:10075000C50290E39093CD0240CFAF92BF92CF926B
:10076000DF92EF92FF920F931F93CF93DF936C0171
:100770007B018B01040F151FEB015E01AE18BF0852
:10078000C017D10759F06991D601ED91FC91019004
:10079000F081E02DC6010995892B79F7C501DF911C
:1007A000CF911F910F91FF90EF90DF90CF90BF906E
:1007B000AF900895833081F028F4813099F0823031
:1007C000A9F008958730A9F08830C9F08430B1F4D9
:1007D000809180008F7D03C0809180008F7780930F
:1007E0008000089584B58F7784BD089584B58F7D8A
:1007F000FBCF8091B0008F778093B00008958091F7
:10080000B0008F7DF9CFCF93DF93282F30E0F9012F
:10081000E255FF4F8491F901E656FF4FD491F9015B
:10082000EA57FF4FC491CC23A1F081110E94DA0353
:10083000EC2FF0E0EE0FFF1FE458FF4FA591B491AD
:10084000EC91ED2381E090E009F480E0DF91CF911D
:10085000089580E090E0FACF1F93CF93DF93282F85
:1008600030E0F901E255FF4F8491F901E656FF4F60
:10087000D491F901EA57FF4FC491CC23A9F0162F68
:1008800081110E94DA03EC2FF0E0EE0FFF1FEE580B
:10089000FF4FA591B4918FB7F894EC91111108C056
:1008A000D095DE23DC938FBFDF91CF911F91089508
:1008B000DE2BF8CFCF93DF9390E0FC01E656FF4F9D
:1008C00024918A579F4FFC0184918823D1F090E0B6
:1008D000880F991FFC01E859FF4FA591B491FC01C5
:1008E000EE58FF4FC591D49161110EC09FB7F89497
:1008F0008C91E22FE0958E238C932881E223E8836C
:100900009FBFDF91CF9108958FB7F894EC91E22BC0
:10091000EC938FBFF6CF3FB7F8948091250190916B
:100920002601A0912701B091280126B5A89B05C0FA
:100930002F3F19F00196A11DB11D3FBFBA2FA92F5E
:10094000982F8827BC01CD01620F711D811D911D5B
:1009500042E0660F771F881F991F4A95D1F70895C7
:100960008F929F92AF92BF92CF92DF92EF92FF92BF
:100970004B015C010E948B046B017C010E948B0483
:100980006C197D098E099F09683E734081059105A8
:10099000A8F321E0821A9108A108B10888EEC80ED8
:1009A00083E0D81EE11CF11C81149104A104B10460
:1009B00029F7FF90EF90DF90CF90BF90AF909F907E
:1009C0008F9008951F920F920FB60F9211242F93BC
:1009D0003F934F935F936F937F938F939F93AF93C7
:1009E000BF93EF93FF9386E491E00E945601FF913D
:1009F000EF91BF91AF919F918F917F916F915F9197
:100A00004F913F912F910F900FBE0F901F9018950F
:100A10001F920F920FB60F9211242F938F939F93D3
:100A2000EF93FF93E0915601F09157018081E0919F
:100A30005C01F0915D0182FD1BC0908180915F019E
:100A40008F5F8F7320916001821741F0E0915F0109
:100A5000F0E0EA5BFE4F958F80935F01FF91EF918D
:100A60009F918F912F910F900FBE0F901F9018950F
:100A70008081F4CF1F920F920FB60F9211242F9303
:100A80003F938F939F93AF93BF9380912101909158
:100A90002201A0912301B09124013091200123E093
:100AA000230F2D3758F50196A11DB11D209320016C
:100AB0008093210190932201A0932301B0932401FC
:100AC0008091250190912601A0912701B0912801E4
:100AD0000196A11DB11D8093250190932601A0933D
:100AE0002701B0932801BF91AF919F918F913F91C2
:100AF0002F910F900FBE0F901F90189526E8230F8F
:100B00000296A11DB11DD2CF1F920F920FB60F9268
:100B100011242F933F934F935F936F937F938F9302
:100B20009F93AF93BF93EF93FF938091E4010E9453
:100B30000304982F2091E9013091EA012F5F3F4F84
:100B400009F46DC03093EA012093E9018091E3013B
:100B500081111CC091111AC02091E9013091EA0164
:100B60002536310578F01092B5023093EC012093D0
:100B7000EB0121E030E03093E8012093E70181E0D0
:100B80008093E3011092EA011092E9012091E701BC
:100B90003091E8012536310530F081E08093B502CF
:100BA00083E08093E3018091E3018130D9F59130B6
:100BB000C9F4A9014F5F5F4F5093E8014093E701EB
:100BC000220F331FF901E551FE4F2091E9013091C9
:100BD000EA01318320831092EA011092E90182E058
:100BE0008093E3018091E601882341F08091E50143
:100BF000911148C061E0811148C02D9AFF91EF9199
:100C0000BF91AF919F918F917F916F915F914F9124
:100C10003F912F910F900FBE0F901F9018952FEFBF
:100C20003FEF90CF8091E301823001F54091E901DF
:100C30005091EA01911114C0B9016F5F7F4F709319
:100C4000E8016093E701220F331FF901E551FE4FE0
:100C5000518340831092EA011092E90181E0C0CFF4
:100C600083E04536510508F0BBCFBCCF8091E3014E
:100C7000833009F0B7CF9111B5CF1092EA011092ED
:100C8000E901B0CF882321F060E00E942C04B6CFA8
:100C90002D98B4CFE6E4F1E01382128288EE93E05F
:100CA000A0E0B0E084839583A683B78384E091E0DD
:100CB0009183808385EC90E09587848784EC90E035
:100CC0009787868780EC90E0918B808B81EC90E019
:100CD000938B828B82EC90E0958B848B86EC90E0FA
:100CE000978B868B118E128E138E148EE3EEF1E0AD
:100CF00084E0818313820895CF93DF9300D000D0E6
:100D000000D0CDB7DEB7789484B5826084BD84B559
:100D1000816084BD85B5826085BD85B5816085BDF6
:100D200080916E00816080936E00109281008091AE
:100D30008100826080938100809181008160809336
:100D40008100809180008160809380008091B1005B
:100D500084608093B1008091B00081608093B00086
:100D600080917A00846080937A0080917A0082601A
:100D700080937A0080917A00816080937A008091DC
:100D80007A00806880937A001092C100F89482E023
:100D90008093B0008093B10084E68093B300809389
:100DA000B4001092B20084E08093700078941092A6
:100DB000E30160E08091E4010E945A0460E08CE06D
:100DC0000E945A0461E081E10E945A0460E081E1DE
:100DD0000E942C0460E08BE00E945A0461E080E1F4
:100DE0000E945A0460E080E10E942C0460E086E0EA
:100DF0000E945A0461E085E00E945A0460E085E0A8
:100E00000E942C0460E089E00E945A0461E084E1C1
:100E10000E945A0460E084E10E942C0460E088E0B3
:100E20000E945A0461E081E00E945A0460E081E07F
:100E30000E942C0460E08AE00E945A0461E08DE088
:100E40000E945A0460E08DE00E942C0461E08EE074
:100E50000E945A0460E08EE00E942C0461E08FE062
:100E60000E945A0460E08FE00E942C0460E085E15B
:100E70000E945A0460E08DE00E942C0481E090E022
:100E800090932A018093290161E08EE00E942C0456
:100E900061E08FE00E942C0461E080E10E942C045C
:100EA00061E081E10E942C0461E085E00E942C0455
:100EB00060E084E10E942C0461E081E00E942C0447
:100EC00022242394312C88248A94982C54018091D4
:100ED000E301833089F48091B502882309F4D9C0F5
:100EE000FF24F394F092C4021092B5021092E8012C
:100EF0001092E7011092E3018CE00E94030481301C
:100F00009105A9F42091330130913401232B09F08C
:100F100037C6909334018093330160E081E10E94F1
:100F20002C0464EF71E080E090E00E94B0048BE05C
:100F30000E94030481309105A9F420913101309180
:100F40003201232B09F022C69093320180933101A4
:100F500060E080E10E942C0464EF71E080E090E0AA
:100F60000E94B00486E00E94030481309105A9F438
:100F700020912F0130913001232B09F00DC6909361
:100F8000300180932F0160E085E00E942C0464EF23
:100F900071E080E090E00E94B00485E10E940304CB
:100FA0008536910524F060E085E00E942C0489E0FC
:100FB0000E94030481309105A9F420912D01309104
:100FC0002E01232B09F0EEC590932E0180932D0165
:100FD00060E084E10E942C0464EF71E080E090E026
:100FE0000E94B00488E00E94030481309105A9F4B6
:100FF00020912B0130912C01232B09F0D9C590931E
:101000002C0180932B0160E081E00E942C0464EFAE
:1010100071E080E090E00E94B0048AE00E94030446
:10102000019739F08091350190913601029709F0CE
:10103000DBC58091290190912A01892B61F461E03F
:101040008FE00E942C0460E08DE00E942C0430921E
:101050002A01209229018091290190912A01823050
:10106000910509F4CEC58330910509F4A7C5019710
:1010700009F0B0C561E08DE00E942C0460E08EE0D4
:101080000E942C0482E090E090932A018093290131
:10109000A1C52BEE31E03093C1022093C0028091B4
:1010A000E7019091E8019093C3028093C2021092ED
:1010B000C4024091C9025091CA0270E060E04093BE
:1010C000D3025093D4026093D5027093D60240911C
:1010D000C7025091C80270E060E04093CF02509385
:1010E000D0026093D1027093D2021092CA02109281
:1010F000C9021092C8021092C7021092CD0210923B
:10110000CE021092B8021092B9021092BA02109256
:10111000BB022091ED013091EE01265831092C35AA
:10112000310508F089C08430910521F58091EF01E7
:101130009091F0018197489708F07EC08091F1016D
:101140009091F2010897089708F076C01092BC02BF
:101150008092B8029092B902A092BA02B092BB02F9
:1011600081E88093CE0288E090E09093C60280935D
:10117000C50233C08434910509F05EC08091EF014F
:101180009091F001825491098F9708F055C0EE2498
:10119000E39400E312E020E936E040E352E063E04C
:1011A00080E20E941202882309F446C0E091C00246
:1011B000F091C102EA57FF4F80819181089708970B
:1011C000D8F580E28093BC0288E090E09093C6025C
:1011D0008093C50280E88093CE028091390190917E
:1011E0003A01A0913B01B0913C0186389C43AA4151
:1011F000B743C9F44AE050E062E171E086E491E06F
:101200000E94AD0342E050E06DE171E086E491E0C0
:101210000E94AD0380913501909136010196909323
:101220003601809335011092E30160E971E080E0BE
:1012300090E00E94B00460CE0E94DC028111CDCF0C
:101240000E94DC028111C9CF8091E7019091E801F1
:10125000829711F5E091C002F091C10282819381E1
:1012600004970597C8F4848195810B970A97A0F499
:10127000EE24E3940CE013E02CE137E044E051E08D
:1012800063E08FE00E941202882331F08FE08093A8
:10129000BC0282E090E09ACF2091C2023091C3025A
:1012A0002A31310508F453C0E091C002F091C10227
:1012B000808191810A9780F41092BC028092B802DA
:1012C0009092B902A092BA02B092BB0281E88093D8
:1012D000CE028FEF9FEF49CF8281938184974A9707
:1012E000B0F560E0C12CD12C760143E050E0848160
:1012F00095810897089758F58681978182319105E5
:10130000E0F0809720F5CC0CDD1CEE1CFF1C6894EF
:10131000C0F86F5F4E5F5F4F34964217530738F344
:101320006093BC02C092B802D092B902E092BA02B5
:10133000F092BB0284E190E049CF8930910538F00A
:10134000419728F4CC0CDD1CEE1CFF1CE2CF1B8265
:101350003A8229822930310508F467C049E753E011
:10136000BE016D5F7F4FCE0101960E948C00892BDC
:1013700009F05BC049E753E0BE016D5F7F4FCE01CE
:1013800001960E948C00019709F04FC049E753E095
:10139000BE016D5F7F4FCE0101960E948C00892BAC
:1013A00009F043C0712CC12CD12C76012091C202CE
:1013B0003091C30289819A818217930748F549E7E2
:1013C00053E0BE016D5F7F4FCE0101960E948C00FD
:1013D0008C0149E753E0BE016D5F7F4FCE0101965E
:1013E0000E948C000130110551F4892BF1F4CC0CD2
:1013F000DD1CEE1CFF1C6894C0F87394D7CF012B42
:10140000A1F4019791F4CC0CDD1CEE1CFF1CF5CF70
:101410007092BC02C092B802D092B902E092BA02B5
:10142000F092BB028FE090E0D1CE1B823A822982FB
:101430008091C2029091C302892B09F47FC0E09190
:10144000C002F091C1028281938188974D9708F084
:1014500075C082E090E09A838983848195810C979E
:101460000B9708F06BC083E090E09A8389834CEB84
:1014700051E0BE016D5F7F4FCE0101960E948C004E
:10148000892B09F05BC04CEB51E0BE016D5F7F4FD3
:10149000CE0101960E948C00019709F04FC0412CAB
:1014A000512C320110E000E02091C2023091C302C1
:1014B00089819A818217930708F0A0C04CEB51E014
:1014C000BE016D5F7F4FCE0101960E948C007C01B2
:1014D0000330110539F14CEB51E0BE016D5F7F4FD8
:1014E000CE0101960E948C006C010330110561F45D
:1014F0004CEB51E0BE016D5F7F4FCE0101960E9423
:101500008C00C816D906D1F4E114F10409F469C0BD
:10151000EA94EF2899F4CD2889F4440C551C661CF4
:10152000771C69C04CEB51E0BE016D5F7F4FCE016F
:1015300001960E948C00E816F90669F28091C202B9
:101540009091C302CC9709F066C0E091C002F0917F
:10155000C10282819381865891098C35910508F0EA
:101560005AC084819581825491098F9708F053C0A5
:10157000EE24E39400E312E020E936E040E352E099
:1015800063E08CE10E941202882309F444C0E091D8
:10159000C002F091C102EA58FF4F80819181089703
:1015A0000897C8F58091B8029091B902A091BA024B
:1015B000B091BB02AC01BD0184E17695679557956A
:1015C00047958A95D1F75093C8024093C702B093CC
:1015D000CA02A093C9028CE18093CD0286E090E01C
:1015E000C4CDCA94CD2809F0A9CF440C551C661C63
:1015F000771C689440F80F5F1F4F56CF0093BC02D2
:101600004092B8025092B9026092BA027092BB0244
:1016100080E190E0DBCD4091C2025091C302E091A5
:10162000C002F091C102828193814232510501F5DD
:101630009C012850310927303105D0F4DF01AE5B21
:10164000BF4F2D913C91285031092730310580F44E
:101650001092BC028092B8029092B902A092BA0293
:10166000B092BB0281E88093CE0284E090E07DCD11
:101670008D5791098735910538F54432510520F190
:1016800084819581CE978C97F8F4EE24E3940EE054
:1016900012E02AE236E04EE052E063E080E10E9490
:1016A0001202882389F0E091C002F091C102EA5B46
:1016B000FF4F808191810897079730F480E18093F4
:1016C000BC0284E090E082CDE091C002F091C102C2
:1016D0002091C2023091C302828193818154910989
:1016E0008F97D0F524303105D1F48481958181978D
:1016F000489790F5868197810897089768F510922A
:10170000BC028092B8029092B902A092BA02B09242
:10171000BB0281E88093CE0281E190E026CD2434A3
:101720003105D0F084819581815491098E97A0F480
:10173000EE24E39406E212E022E736E046E252E0CD
:1017400063E080E20E941202882331F080E28093FD
:10175000BC0281E190E03ACD4091C2025091C302B7
:10176000E091C002F091C1024A31510508F496C0DF
:1017700080819181409780F41092BC028092B802DF
:101780009092B902A092BA02B092BB0281E8809313
:10179000CE0282E190E0E9CC82819381C497869762
:1017A00090F584819581C497869768F5DF0183E081
:1017B00090E0C12CD12C76019C012F5F3F4F241764
:1017C000350708F056C016962D913C9117972D506D
:1017D00031092C30310508F04CC018962D913C9100
:1017E00019972432310560F02E33310560F4CC0CAA
:1017F000DD1CEE1CFF1C6894C0F802961496DCCF2A
:101800002A30310570F5828193814434510509F005
:1018100045C00B970A9708F041C0848195818A974B
:101820004E97E0F5EE24E3940EEE12E026E638E063
:101830004EEE52E063E080E20E941202882371F1D2
:10184000E091C002F091C102EA57FF4F808191817F
:101850000B970A9718F580E28093CD0285E190E01E
:10186000B5CC2431310578F6CC0CDD1CEE1CFF1C08
:10187000C4CF0197969587958093BC028C3018F45D
:101880001092BC02C0CFC092B802D092B902E092CE
:10189000BA02F092BB0282E190E098CCE091C002E3
:1018A000F091C1022091C2023091C30282819381E2
:1018B0000297049708F060C02432310509F05CC03B
:1018C000848195810F970C9708F056C0EE24E3941D
:1018D00007E011E029E232E04EE950E063E080E108
:1018E0000E941202882309F447C0E091C002F091DF
:1018F000C102DF01AA5BBF4F8D919C9102970497B3
:10190000D8F54091B8029091B902242F392F592F60
:1019100052955F709F7064E0369527956A95E1F760
:101920002F704F708FE0852789278227481719F07D
:1019300084E08093CE0260817181683F714128F418
:101940008091CE0282608093CE025093C7021092A3
:10195000C80230E1939FC0011124822B9093CA02E8
:101960008093C90285E090E09093C6028093C502FF
:1019700080E18093CD0231CCE091C002F091C102B0
:101980002091C2023091C3028281938140970D97CA
:10199000D0F524323105B9F584819581459740977A
:1019A00090F5E12C07EA15E024ED31E046E152E044
:1019B00063E080E10E941202882329F1E091C002D5
:1019C000F091C102DF01AA5BBF4F8D919C910897F6
:1019D0000797C8F48091B8029091B90298279F3F69
:1019E00091F4208131812431354018F4A1E0A09395
:1019F000CE0290E09093CA028093C9023092C60250
:101A00002092C502B5CF6090C2027090C302B6E6C4
:101A10006B16710409F05AC04090C0025090C10288
:101A2000EE24E394F12C20E030E040E010E000E010
:101A30001C821D821E82D2011296ED91FC91B2E0B1
:101A4000EB0EF11CD2011496CD90DC90C601BF01C3
:101A50000E94360EDB01EC0DFD1D71973E97D8F507
:101A6000512F602F7C818D819E8101E00E944A0E62
:101A7000E32FF42F152F062F7C838D839E831297DF
:101A800008F4216084E0480E511C95E6E916F10443
:101A900091F687E090E09093C6028093C50282E3BE
:101AA0008093CD0280E18093CE022093CB02E0931D
:101AB000CC022093BD02E093BE02F093B802509393
:101AC000B9026093BA027093BB0287CBB6E06B1683
:101AD000710408F40FCAE091C002F091C10232967D
:101AE00003E010E025EC3DE94CE151E8061517054F
:101AF000A8F58481958161917191AAE0A89F7001F8
:101B0000A99FF00C1124DB01AA0FBB1FAA0FBB1F5A
:101B1000AA0FBB1FEA16FB06F8F0AAE0FA2EF69E03
:101B2000D001F79EB00D112463E0880F991F6A95CC
:101B3000E1F7FF24F394A817B90710F482E0F82E18
:101B400063E971E080E091E00E940C0E9B01AC0122
:101B50002F250F5F1F4FCACFF12CF2CF2093B80271
:101B60003093B9024093BA025093BB0280E2809353
:101B7000BC022FEF3FEF3093C6022093C5022DCB5E
:101B8000109234011092330161E0C8C91092320101
:101B90001092310161E0DDC91092300110922F01E5
:101BA00061E0F2C910922E0110922D0161E011CA7C
:101BB00010922C0110922B0161E026CA61E08FE0A7
:101BC0000E942C0460E08DE00E942C0430922A01D7
:101BD0002092290164EF71E080E090E00E94B0045F
:101BE000109236011092350180E090E0892B09F4C3
:101BF0006EC90E94E501882309F469C90E940000AA
:101C000066C961E08EE00E942C0460E08FE00E94D3
:101C10002C0483E090E038CADB018F939F930E94ED
:101C20001C0EBF91AF91A29F800D911DA39F900D9F
:101C3000B29F900D112408950E94270EA59F900D2C
:101C4000B49F900DA49F800D911D11240895A29F13
:101C5000B001B39FC001A39F700D811D1124911D80
:101C6000B29F700D811D1124911D0895AA1BBB1BED
:101C700051E107C0AA1FBB1FA617B70710F0A61B8C
:101C8000B70B881F991F5A95A9F780959095BC01AD
:101C9000CD010895002E083090F0982F872F762FD1
:101CA000652F542F432F322F22270850F4CF220FB5
:101CB000331F441F551F661F771F881F991F0A95E2
:101CC000B2F7002D0895EE0FFF1F0590F491E02D5F
:061CD0000994F894FFCF17
:101CD600000000007801AD031901C5014A01280181
:101CE6003C0156656C6F636964616465000D0A00AA
:00000001FF
